:100000009AC50000B4C50000B2C50000B0C500002C
:10001000AEC50000ACC50000AAC50000A8C5000020
:10002000A6C50000A4C500000C9417250C94D3238A
:100030000C9441279CC500009AC5000098C500009B
:1000400096C5000094C5000092C5000090C5000050
:100050008EC500000C9403278AC5000088C50000E7
:1000600086C5000084C5000082C5000080C5000070
:100070007EC500007CC500007AC5000078C5000080
:1000800076C5000074C5000072C5000070C5000090
:100090006EC500006CC500006AC5000068C50000A0
:1000A00066C5000064C5000062C50000D30D470EA0
:1000B000DB0DA50DA90DDF0DAC0DE20DED0DB70D9E
:1000C0003D0EBB0DF10DBF0DF50D1F0EC30DF90D4E
:1000D000290EC90DFF0D090EB00DE60DB30DE90D8A
:1000E000CE0D040E150E350E370EA10DD70D500E88
:1000F000C90E970E9C0EA10EA60EAB0EB00EB50E3D
:10010000BA0EBF0EC40E850F850FB80FB80F35108D
:100110005310501150115810CC10DD10DD107B0D14
:100120007811C90E970E9C0EA10EA60EAB0EB00E46
:10013000B50EBA0EBF0EC40EF11B181CD31D181C31
:10014000D31D641C861CD31D881D981DEF2DF22D18
:10015000F82DF12DF42DF72DF62D05010980A101C3
:1001600085031A01002A8F00160100268F009501D1
:1001700075108100C0050C0901A101850419012A2F
:10018000A002150126A002950175108100C005018D
:100190000906A1018506050719E029E715002501D3
:1001A0009508750181020507190029EF1500250141
:1001B00095F075018102050819012905950575015C
:1001C0009102950175039101C005010902A1010980
:1001D00001A10005091901290815002501950875D7
:1001E0000181020501093009311581257F950275CC
:1001F00008810609381581257F9501750881060556
:100200000C0A38021581257F950175088106C0C04A
:100210000660FF0961A1010962150026FF00952013
:10022000750881020963150026FF00952075089165
:1002300002C005010906A101050719E029E715001B
:100240002501950875018102950175088101050751
:10025000190029FF150026FF009506750881000585
:1002600008190129051500250195057501910295CB
:100270000175039101C009027400040100A0FA098C
:1002800004000001030101000921110100012244C1
:1002900000070581030800010904010002030000B2
:1002A000000921110100012222000705830320001B
:1002B00001070504032000010904020001030102F3
:1002C00000092111010001224700070582031000E7
:1002D00001090403000103000000092111010001CC
:1002E000226F0007058503200001120100020000B3
:1002F0000008973276490001010203011A037800D1
:100300006200760071004B002F006E006C007900D7
:100310004E005A00470000001603450072006700B7
:100320006F0064006F007800200045005A00000054
:1003300028035A0053004100200054006500630068
:1003400068006E006F006C006F006700790020008D
:100350004C006100620073000000040309042900DE
:100360002B00E000E100E10100001746140004004A
:100370001D00E201280013471A0016001B00E104CB
:100380002B210943080007000600E2002C42154D0E
:100390001500090019002928A8006E4917000A0055
:1003A00005000000AA00184F4A0000004D000000A0
:1003B000A9006E494B0000004E0000004600184F97
:1003C0001C000B001143000046023D4218000D00C6
:1003D00010005000390010420C000E003600520090
:1003E000E5001B4912000F00370051002A0023448A
:1003F0001300330038004F004C000100635261527B
:100400006452E3000000010001000100010001004E
:1004100000001E00010001000100010001001F009A
:1004200001000100010001000100200001000100A5
:10043000010001002C4221000100010001002C00FC
:100440000100220001000100010000000100230062
:100450000100000001000000010022000100000076
:100460000100000001002300010001001100000054
:10047000010024000100010001000100010025002D
:10048000010001000100010001002600010001003F
:10049000010001000100270001000100010001002E
:1004A0000100010001000100010001000000010045
:1004B000010001000100010000003A0035001E02A9
:1004C0003502010001003B00360225022E02010028
:1004D00001003C00370238002D02010001003D0000
:1004E0002D002E003302010001003E0031022402E3
:1004F0002202000001003F00010000000100000096
:1005000001003E00010000000100000001003F006A
:10051000230220021F020000010040002F022602D9
:100520002F000100010041003002270230000100CD
:1005300001004200210233003100010001004300AC
:10054000240234023400010001004400450001008F
:100550000100010000000100010001000100010094
:100560000000010001000100010001000100010084
:1005700001002D0501000100010001000100010042
:10058000010001000100010001002D030100010034
:100590000100010001000100010000000100010054
:1005A0000100000001000000010001000100000046
:1005B0000100000001000100010001000100000035
:1005C0000100240021001E0036000100010025006A
:1005D00022001F0027000100010026002300200048
:1005E0000100010001000100010001000100010003
:1005F00001000100010001000052010000000100A3
:1006000001000100010001000000010029782A78A2
:1006100021782478D30001000100CF00007E2378E8
:10062000D2000100CD00CE002878407ED10001002C
:100630000100D0002778010001000100257826780C
:10064000207800000100010001000000010000000E
:100650000100010001000000010000000100010094
:10066000AC00AE000100000001000100AB00DB00A7
:10067000DD00010001000100D900DA00DE00010008
:10068000010001000100DC00DF00010001000100A9
:100690000100BD00BE000100010001000052010088
:1006A00001000100000000201030005040600031C7
:1006B0002141006151710012022200423252007247
:1006C0006282001303230053436300140424006474
:1006D00054740015052500453555007565850016CF
:1006E00006260046365600170727004737570028CA
:1006F0001838005848680039294900695979001AA2
:100700000A2A004A3A5A0120103001504060013153
:1007100021410161517101120222014232520172E2
:10072000628201130323015343630114042401640F
:10073000547401150525014535550175658501166A
:100740000626014636560117072701473757012865
:100750001838015848680139294901695979011A3D
:100760000A2A014A3A5A0000000000000000000076
:100770000000000000000000000000000000000079
:100780000000000000000000000000000000000069
:100790000000000000000000000000000000000059
:1007A0000000000000000000000000000000000049
:1007B0000000000000000000000000000000000039
:1007C0000000000000000000000000000000000029
:1007D0000000000000000000000000000000000019
:1007E0000000000000000000000000000000000009
:1007F00000000000000000000000000000000000F9
:1008000000000000000000000000000000000000E8
:1008100000000000000000000000000000000000D8
:1008200000000000000000000000000000000000C8
:1008300000000000000000000000000000000000B8
:1008400000000000000000000000000000000000A8
:100850000000000000000000000000000000000098
:100860000000000000000000000000000000000088
:100870000000000000000000000000000000000078
:100880000000000000001FFFFF1FFFFF1FFFFF1FF2
:10089000FFFF1FFFFFD1FFFF29FFFF29FFFFD1FF50
:1008A000FFD1FFFFD1FFFF29FFFF29FFFFD1FFFF8E
:1008B000D1FFFFD1FFFF29FFFF29FFFFD1FFFFD1AC
:1008C000FFFF00B7EE00B7EE00B7EE00B7EE1FFF78
:1008D000FF1FFFFF1FFFFF1FFFFF1FFFFFD1FFFFD6
:1008E000D1FFFF4AFFFF4AFFFFD1FFFFD1FFFFD13A
:1008F000FFFFD1FFFFD1FFFFD1FFFFD1FFFFD1FFEE
:10090000FFD1FFFFD1FFFFD1FFFFD1FFFFD1FFFFDD
:10091000D1FFFFD1FFFF62FFFF1FFFFF1FFFFF1F80
:10092000FFFF62FFFF62FFFF1FFFFF1FFFFF1FFFB1
:10093000FF62FFFF62FFFF1FFFFF1FFFFF1FFFFFA1
:1009400062FFFF0AE1FF62FFFF1FFFFF62FFFF621E
:10095000FFFF0000FF0000FF0000FF0000FF62FF3C
:10096000FF62FFFF62FFFF62FFFF62FFFF62FFFFA8
:1009700062FFFF62FFFF62FFFF62FFFF62FFFF0097
:10098000B7EE62FFFF00B7EE62FFFF62FFFF62FF9C
:10099000FF62FFFF62FFFF62FFFF62FFFF62FFFF78
:1009A00062FFFF62FFFF1E60FF1E60FF1E60FF1EF2
:1009B00060FF1E60FFA978FFA978FF1FFFFFC3FF3C
:1009C000FFC3FFFFA978FF1FFFFF1FFFFF1FFFFFF0
:1009D00092E0FFC3FFFF0FA6C30FA6C30FA6C392EB
:1009E000E0FF0AE1FF0AE1FF0AE1FF0AE1FF1E6002
:1009F000FF1E60FF1E60FF1E60FF1E60FFC3FFFF43
:100A0000C3FFFF0AE1FFC3FFFFC3FFFFC3FFFF0AEE
:100A1000E1FF0AE1FF0AE1FFC3FFFFC3FFFFC3FFDE
:100A2000FFC3FFFFC3FFFFC3FFFFC3FFFFC3FFFF02
:100A3000C3FFFFC3FFFF000101010101010101012B
:100A4000020202020202020202030303030303037F
:100A5000030404040404040405050505050606064C
:100A60000606070707070708080808090909090A09
:100A70000A0A0B0B0B0C0C0C0D0D0D0E0E0E0F0FAE
:100A80000F1010111111121213131414151516163C
:100A90001717181819191A1A1B1B1C1D1D1E1E1FAB
:100AA0002020212222232424252626272829292AFA
:100AB0002B2C2D2D2E2F3031323233343536373822
:100AC000393A3B3C3D3E3F4041424344454647481E
:100AD000494A4C4D4E4F50515354555658595A5BF4
:100AE0005D5E5F616264656668696B6C6D6F707294
:100AF000737577787A7B7D7E8082838587888A8C00
:100B00008E8F91939596989A9C9EA0A2A3A5A7A933
:100B1000ABADAFB1B3B5B7BABCBEC0C2C4C6C9CB2A
:100B2000CDCFD1D4D6D8DBDDDFE2E4E7E9EBEEF0E0
:100B3000F3F5F8FAFDFF11241FBECFEFDAE0DEBFB8
:100B4000CDBF12E0A0E0B1E0E2EAF6E702C0059016
:100B50000D92A039B107D9F726E0A0E9B2E001C0B3
:100B60001D92AE37B207E1F703D00C944F3B48CA51
:100B7000A3E7B0E0EEEBF5E00C945A3885B7806857
:100B800085BF85B7806885BF84B7877F84BF0FB670
:100B9000F894A8958091600088618093600010921D
:100BA00060000FBE90E080E80FB6F894809361007B
:100BB000909361000FBE81E0809319018BEE9DE15F
:100BC00090939102809390020E9417240E94BD246A
:100BD0008091E20084608093E20078948091E80341
:100BE0008823A1F01091E9001F709091EC00892FEB
:100BF000817090FD80E8182B1092E9008091E80048
:100C000083FD0E940A1B1F701093E90082E084BDDF
:100C100093E095BD9AEF97BD80936E000E940D2FD3
:100C200090E090931101809310010E94852E0E9404
:100C3000E82EE2E9F2E0A0EAB2E011921D9222E091
:100C4000E03AF207D1F780E090E00E940C39833E51
:100C50009E4F09F443C063EE7EEF80E090E00E9477
:100C60003A3960E082E090E00E94203981E0809390
:100C7000BE0261E083E090E00E94203960E074E110
:100C800084E090E00E943A390E943A311092530673
:100C900010925406109255061092560684E08093E6
:100CA0005306409153065091540660915506709139
:100CB00056068FE090E00E94323940E050E0BA01E1
:100CC00083E190E00E94323948E050E067E170E053
:100CD0008FE194E00E9411391092270482E090E0A5
:100CE0000E94FF388093AE0284E090E00E940C39AD
:100CF00090931E0680931D060E94CD224FEF57EE63
:100D000083E0415050408040E1F700C000000E9465
:100D1000CD228091A00280FF08C06FEF7FEF80E0BE
:100D200090E00E943A390E94D12683E090E00E9430
:100D3000FF380E94A434809152060E94DB2D0E944D
:100D400010291092F603EFE0F4E08FEF9FEF81930C
:100D50009193A4E0EF31FA07D1F710922506EEE364
:100D6000F6E08EE496E02FEF3FEF219331938E175C
:100D70009F07D9F781E08093270448E050E067E1BE
:100D800070E08FE194E00E94EF3810922704809188
:100D90001F048C7F11F40E943A3189EA809380000D
:100DA00089E08093810024982C983F98479A549822
:100DB0005C9A55985D9A6E98769A569A8FE090E074
:100DC0000E9407396093530670935406809355062A
:100DD0009093560667701FEF169FB001112475950A
:100DE000679575956795772770938900609388005C
:100DF00070938B0060938A0070938D0060938C00D9
:100E00005E980E94CE2D0E94CA2D0E94C62D8FEFA3
:100E100090E0909389008093880090938B0080935A
:100E20008A0090938D0080938C000E94D82DBFEF94
:100E3000E0E7F2E0B150E040F040E1F700C0000030
:100E40000E94D52D2FEF30E742E021503040404046
:100E5000E1F700C000000E94D22D5FEF80E792E032
:100E6000515080409040E1F700C000000E94CE2D1C
:100E7000AFEFB0E7E2E0A150B040E040E1F700C0E2
:100E800000000E94CA2DFFEF20E732E0F150204021
:100E90003040E1F700C000000E94C62D809153064B
:100EA0008770189FC0011124959587959595879512
:100EB0009927909389008093880090938B0080936A
:100EC0008A0090938D0080938C005E980E94CE2DB6
:100ED0000E94CA2D0E94C62D80911F04843B18F0E9
:100EE00080E00E949C180E94AB2A0E94961884E021
:100EF00091E090931A06809319068091E80385305B
:100F000009F070C011E000E443E0F42E50E1E52E5A
:100F100062E1D62E8091E803853009F05DC08091B2
:100F2000E803843009F438C00E94CC2A80915A0624
:100F300081110DC00E94931110921F0180911F0416
:100F4000837080931E010E947C23F0921D011093F8
:100F50005A0610921F0648E150E00FB6F894A89583
:100F6000409360000FBE0093600083B7817F846070
:100F700083BF83B7816083BF7894889583B78E7F62
:100F800083BF0FB6F894A895809160008861809324
:100F90006000109260000FBE0E940D2F90E09093B1
:100FA0001101809310010E94852E0E94E82EE0EA34
:100FB000F2E011928EEA92E08E179F07D1F70E941D
:100FC000CD22E0EAF2E081918111BEC3AEEAB2E047
:100FD000AE17BF07C1F79ECF0E94D0340E942628CB
:100FE00010925A060E94CD22EFEAF2E0AA96FFAFD5
:100FF000EEAFAA97A0EAB2E091918D91892722E005
:10100000ED3BF20719F08823B9F305C0811103C045
:101010000E9457239EC13AE8232E33E0332E46E444
:1010200051E0AC965FAF4EAFAC9780EA92E0E096AD
:101030009FAF8EAFE097F12CE096AEADBFADE097DD
:101040007D90E096BFAFAEAFE097AA96EEADFFAD54
:10105000AA97C080C724AE96CFAEAE97CC2009F435
:101060005BC16101AC964EAC5FACAC97E12C6624E1
:101070006394AE968FADAE97862109F43DC1862C60
:101080008720A296EFAEA297A396FFAEA3970E94E9
:101090003527A5969FAF8EAFA597F1E0A696FFAF37
:1010A000A69791E0811001C090E0A7969FAFA79707
:1010B000A2964FADA297A3965FADA397A4966FADEE
:1010C000A497A5967FADA597A6968FADA6970E94EB
:1010D000712C882051F0D2018C918F3F31F0AD9668
:1010E0008FAFAD979924939401C0912C092D10E0F6
:1010F00080912506F801E80FF11D3997ACF188E0E1
:10110000A82EB12CA01AB10AB8016F5F7F4F6B5D9A
:10111000794FA50186E296E00E94463BB801675FE1
:101120007F4F6B5D794FA5018EE296E00E94463BB2
:10113000A501440F551FB801660F771F675E7F4FEB
:101140006B5D794F8EE396E00E94463BB8016F5E7F
:101150007F4F6B5D794FA50186E396E00E94463B89
:1011600088E08919809325068091250690E0AD9648
:10117000FFADAD97AF2FB0E09D01220F331F265674
:101180003E4FAA0FBB1FBD0165567E4F41E0480F81
:101190009915C0F490E0FC01EB5DF94FD9015C9129
:1011A0005183DB015C915187AD96BFADAD97B18B9B
:1011B000880F991FFC01EB5DF94F128E118E91E0A3
:1011C000842FE4CF80932506882009F495C0809170
:1011D0001F048C7F8C3709F08FC0F20180818F3F14
:1011E00009F48AC076E4A72E71E0B72EEAE88E2EC5
:1011F000E3E09E2EA8961FAEA89790E09C01220FD8
:10120000331FA90146565E4FE2965FAF4EAFE2979D
:10121000D901A556BE4FE496BFAFAEAFE49700E04C
:1012200010E0F501E00FF11F80818F3F09F44EC0FF
:10123000A896BFADA897BF110AC0E01208C0F6017A
:10124000208130E2230F08F42FEF20833FC090E08D
:10125000E296EEADFFADE297408150E0FC01EE0F6B
:10126000FF1FE656FE4F2081421B5109E496AEADAA
:10127000BFADE4972C9130E0880F991FFC01E55633
:10128000FE4F8081281B3109449FB001459F700D9E
:10129000700D1124229FC001239F900D900D1124E9
:1012A000860F971F0E948A31893280F428E2382FF6
:1012B000231B08F420E0F401E00FF11F213108F0B6
:1012C00020E13081320F08F43FEF30830F5F1F4F72
:1012D0000630110509F0A5CFA8964FADA8974F5F2E
:1012E000A8964FAFA89756E0850E911C86E0A80EF1
:1012F000B11C4E3009F093CFE394660C9FEF491A6E
:10130000590AAFEFCA1ADA0AB6E0EB12B2CEAA96C1
:10131000EEADFFADAA977082F394AA962EAD3FADC5
:10132000AA972F5F3F4FAA963FAF2EAFAA97AC96D2
:101330004EAD5FADAC974A5F5F4FAC965FAF4EAFBF
:10134000AC9756E0250E311C8EE0F81275CE0E9447
:1013500029270E94CC2AB090120610911306C09043
:10136000140600911506D0901606109213061092DE
:1013700014061092150610921606111103C0CC2007
:1013800009F449C0E0901006F09011060E9435273C
:101390009C012E193F0990910B06992309F4EFC186
:1013A0002A313105C0F19F3F19F09F5F90930B06E2
:1013B000112361F00E947D28111614F491E001C000
:1013C0009FEF899F802D112480931306CC2061F01C
:1013D0000E947D281C1414F09FEF01C091E0899FAA
:1013E000802D11248093140680911306882399F090
:1013F000F0901406FF2079F00E949128811101C01D
:1014000081E0809313068F2D0E949128811101C0E5
:1014100081E080931406011103C0DD2009F449C066
:10142000E0900E06F0900F060E9435279C012E19C1
:101430003F0990910C06992309F4A5C12A31310581
:10144000C0F19F3F19F09F5F90930C06002361F05D
:101450000E945D28101614F491E001C09FEF899F4F
:10146000802D112480931506DD2061F00E945D28F7
:101470001D1414F09FEF01C091E0899F802D11246D
:101480008093160680911506882399F0F090160631
:10149000FF2079F00E949128811101C081E08093A2
:1014A00015068F2D0E949128811101C081E0809343
:1014B000160680911206B8121AC08091130688236E
:1014C00011F0181314C080911406882311F0C8126B
:1014D0000EC080911606882311F0D81208C0909192
:1014E0001506992331F081E0091304C002C081E0A0
:1014F00001C080E080FD15C08091130681110FC0EE
:101500008091140681110BC080911506811107C0CE
:1015100081E090911606911103C080E001C081E046
:1015200080FD0E943528B092120610931306C092D7
:10153000140600931506D09216060E942628909154
:10154000BD02891721F08093BD020E942927809156
:10155000E803843009F0D1CC8093E9008091E80061
:1015600082FFCBCC8091E80085FF23C00E94362407
:1015700081111DC080E2E82EF12C8E010F5B1F4F00
:1015800009C08091F100D8018D938D01B1E0EB1A73
:10159000F10869F08091E80085FDF3CF8091E800C3
:1015A0008B778093E8000E943624882399F391E09A
:1015B00001C090E08091E8008B778093E800992348
:1015C00009F49BCC22968FAD2297873009F46AC02C
:1015D00038F5823009F491CCD8F48823C9F18130F0
:1015E00009F0AEC08093570684E089A31EEF1AA3CA
:1015F000CE0181960E949018909152068091BE0271
:10160000892B0E94352C95E099838A831B8393C094
:10161000853009F478C008F076C0843031F190C08C
:101620008A3009F472C038F4883009F46CC089300B
:1016300009F469C085C08C3009F482C008F480C008
:101640008E3F09F07DC0898395E09A838B8373C0B8
:1016500019828DE0E5E2F1E0DE01129601900D9233
:101660008A95E1F78EEF8E8766C0809157068823B2
:1016700009F443CC23968FAD2397811106C024969D
:101680008FAD24970E948F3438CC81E090E024966F
:101690000FAC249702C0880F991F0A94E2F70E94AA
:1016A0008A342BCC81E08093590623968FAD239703
:1016B0008230E1F030F5882319F0813061F021C0EB
:1016C00024968FAD2497882319F00E94D82D15CC2D
:1016D0000E94CE2D12CC24968FAD2497882319F02A
:1016E0000E94D52D0ACC0E94CA2D07CC24968FAD1E
:1016F0002497882319F00E94D22DFFCB0E94C62D7B
:10170000FCCB85E01EC084E01CC023968FAD2397E0
:1017100091E0811101C090E090935906811106C0BB
:101720000E94CE2D0E94CA2D0E94C62D8BE0898377
:10173000809159068A83CE0101960E949018DDCBD4
:101740008FEF0E94282ED9CB8091E703882309F4DC
:10175000E1CBE9BCD9BC09B400FEFDCF8091D80033
:101760008F7D8093D8008091E00082608093E000BC
:101770008091E00081FDFCCF0E94D034CBCB232BA5
:1017800009F013CE48CE2139314008F05CCE91CE1D
:10179000A0E0B0E0EEECFBE00C946338FC012481A7
:1017A000222309F4BBC58C0161E00E94492CEC01A5
:1017B000F8019581C234F8E7DF0709F46DC030F411
:1017C000C03238E7D30709F467C07BC0C1158EE784
:1017D000D80709F43FC0C130EEE7DE0709F071C059
:1017E000992309F48DC19091530681E0890F877088
:1017F000987F853020F4892B8093530602C0909304
:101800005306809153068770FFEF8F9FC00111240C
:1018100095958795959587959927909389008093BD
:10182000880090938B0080938A0090938D00809322
:101830008C0040915306509154066091550670916A
:1018400056068FE090E00E943239809152060E9445
:10185000DB2D56C1992309F453C18091530683FBB4
:10186000222720F991E0922790FB83F98093530679
:10187000992329F040E060E080E00E9434314091FB
:1018800053065091540660915506709156068FE0AC
:1018900090E00E94323934C1992309F42AC2809120
:1018A00024048F3F51F4109224040E94961840E0C3
:1018B00060E080E00E9434311CC28FEF80932404EA
:1018C0001CC1C33127E4D20709F451C0D8F4C93090
:1018D00083E4D80709F460C058F4C031F2E4DF07AC
:1018E00009F4C3C0CD3322E4D20709F4A9C008C16A
:1018F000C33234E4D30709F4E2C0C73186E4D80721
:10190000E9F0FEC0C531EDE4DE0709F45AC058F431
:10191000CB3129E4D20709F4BDC0CE3639E4D30770
:1019200009F464C0EDC0C8318FE4D80709F473C06E
:10193000C034EEE7DE0709F4D7C0E2C0F8018681C3
:1019400082958F7041F0992319F08EE190E007C0E5
:101950008EE190E009C0992329F08AE390E00E948B
:10196000332DC7C18AE390E00E941D2DC2C1F8014A
:10197000868182958F7041F0992319F08FE190E074
:10198000EECF8FE190E0F0CF992319F08BE390E058
:10199000E6CF8BE390E0E8CFF801868182958F70E7
:1019A00041F0992319F080E290E0D9CF80E290E0F5
:1019B000DBCF992319F08CE390E0D1CF8CE390E05A
:1019C000D3CFF801868182958F7041F0992319F069
:1019D00081E290E0C4CF81E290E0C6CF992319F074
:1019E0008DE390E0BCCF8DE390E0BECFF80186811F
:1019F00082958F7041F0992319F082E290E0AFCF89
:101A000082E290E0B1CF992319F08EE390E0A7CF66
:101A10008EE390E0A9CFF801868182958F7041F026
:101A2000992319F083E290E09ACF83E290E09CCF73
:101A3000992319F08FE390E092CF8FE390E094CF59
:101A4000F801868182958F7041F0992319F084E224
:101A500090E085CF84E290E087CF992319F080E46D
:101A600090E07DCF80E490E07FCFF8018681829581
:101A70008F7041F0992319F085E290E070CF85E2F4
:101A800090E072CF992319F081E490E068CF81E46F
:101A900090E06ACFF801868182958F7041F099239A
:101AA00019F086E290E05BCF86E290E05DCF99236B
:101AB00019F082E490E053CF82E490E055CFF80132
:101AC000868182958F7041F0992319F087E290E02A
:101AD00046CF87E290E048CF992319F083E490E065
:101AE0003ECF83E490E040CF992309F402C181E026
:101AF0000E949C18FEC00E94AB2A0E949618F9C052
:101B0000F8019581992309F447C19E01305723328A
:101B1000310508F0DBC084E090E00E940C3990931E
:101B20001E0680931D06FE01E150F047E232F105EA
:101B300020F4EA5AFF4F0C94333B80911D068160DC
:101B4000ACC080911E068860B4C080911D06826082
:101B5000A4C080911D0620C080911D0688609DC094
:101B600080911E061EC080911E068260A2C08091D8
:101B70001D06806192C080911D0680628EC080919A
:101B80001D0680648AC00E94D03480911D06806842
:101B900084C080911D06886084607FC080911E068D
:101BA0008260816086C080911D068E7F76C08091A4
:101BB0001E06877F7EC080911D068D7F6EC080913E
:101BC0001D0620C080911D06877F67C080911E067C
:101BD0001EC080911E068D7F6CC080911D068F7E79
:101BE0005CC080911D068F7D58C080911D068F7B43
:101BF00054C00E94D03480911D068F774EC08091D2
:101C00001D06877F8B7F49C080911E068D7F8E7F4A
:101C100050C080911D0682FB222720F991E0922777
:101C200090FB82F990FB83F938C080911E06982FB3
:101C3000909591708E7F892B90FB81F93AC08091AD
:101C40001D0686FB222720F991E0922790FB86F95A
:101C500024C00E94D03480911D0687FB222720F9E2
:101C600091E0922790FB87F918C061E001C060E025
:101C70008EE090E00E9420391EC080911D0684FBFA
:101C8000222720F991E0922790FB84F906C08091E9
:101C90001D06982F909590FB80F980931D060BC030
:101CA00080911E0683FB222720F991E0922790FB6A
:101CB00083F980931E0660911D0670911E0684E0D4
:101CC00090E00E943A390E94D03413C0809194046D
:101CD000C631FCE7DF07F9F48A7A91E009F490E075
:101CE0009093BF028111FEC289E20E94A1270E9447
:101CF000572080916904877009F410C3F801858129
:101D0000882309F40BC380911E0682FF07C382E07B
:101D10000E94AC2003C38272FE01E052F847EB3010
:101D2000F10508F048C0E858FF4F0C94333B882376
:101D300029F00E94982ADDCF8823D9F30E94A12A96
:101D4000D8CF882329F00E94862AD3CF8823D9F3BD
:101D50000E948F2ACECF882329F00E946E2AC9CFF5
:101D60008823D9F30E947A2AC4CF882329F00E94BD
:101D7000562ABFCF8823D9F30E94622ABACF88237C
:101D800029F00E94422AB5CF8823D9F30E944C2A19
:101D9000B0CF0E94B82AADCFC6312CE7D20709F4E4
:101DA000B3C2809194048272FE01E054F847ED3092
:101DB000F10508F499C29E01205E324520323105BA
:101DC000A8F4911115C0CF7181E090E09C0102C090
:101DD000220F331FCA95E2F7E901622F83E090E0FA
:101DE0000E9420398C2F0E94A43483CF9923B9F10B
:101DF000C3303CE7D307E1F040F4C1159CE7D907B5
:101E000089F0C130DC47D1F02AC0CB35FCE7DF07D1
:101E100019F1CC352CE7D207B9F0CA35DC47F9F413
:101E200081E01BC081E00E94122D0E94D12661CF6B
:101E30006FEF7FEF80E090E00E943A3980E00E94EF
:101E4000122D0E94C62655CF80911E0682FB882740
:101E500080F991E0892701C080E00E94C320F80149
:101E60008581C081D181882349F0CE010E94E6336B
:101E7000F82E682FCE010E94553404C0CE010E9476
:101E80002134F82EBE018F2D0E941E1F0E943B1F81
:101E9000F82EC92FD82EF801D581E680E2949FE074
:101EA000E92280916904877001F1DD23F1F08C2F24
:101EB000807F803469F080E28F0D8830B0F08C2F05
:101EC000807E803229F4F1E0FF1578F4EE2069F08D
:101ED00080911E0682FF09C082E00E94AC208091A2
:101EE00069048770CC24C3948111C12CBC2EB29498
:101EF0008FE0B8228B2D90E08C30910508F0D0C196
:101F0000FC01ED57FF4F0C94333B8C2F807FCF703B
:101F1000882311F0C295C07FDD23B9F0CC2309F4EA
:101F2000ADC180E28F0D883010F0D11006C09091C5
:101F30009404C92BC093940405C090916B04C92BE1
:101F4000C0936B040E94572099C18F2D0E94FD35CC
:101F5000CC2309F4A5C180E28F0D883088F1DD2003
:101F600079F1C09590916B04C923C0936B042BC089
:101F70008C2F807FCF70803211F0C295C07F8F2D63
:101F8000DD2029F021E0D21609F44CC055C0809123
:101F90001E0682FD1BC0DD2369F0CC2339F0909131
:101FA0009404C92BC09394040E94572080E00E949F
:101FB0002C3676C180E00E94FD35CC2309F470C137
:101FC0008C2F0E9450200E9457206AC1DD2381F08F
:101FD000EE20B1F131E0E31263C190916A048C2FDD
:101FE0008923C81709F45CC1C92BC0936A0458C17E
:101FF000E11056C18C2F0E94153580916A049C2FE8
:10200000982329F09C2F9095892380936A0420912E
:10201000C0028C2F822309F443C1C0952C23209346
:10202000C0023EC1DD2329F081E08E1508F438C1DD
:1020300007C0E11035C115C0DD2331F0E1101EC12C
:102040008C2F0E941C352CC1EE2059F0893309F0E9
:1020500024C19FEFE7EEF3E09150E040F040E1F75C
:102060001AC18C2F0E9415351BC18C2F8695869521
:10207000837019F0813061F013C1DD2321F08F2DC1
:102080009C2F937002C080E090E00E94FF270FC158
:10209000DD2321F08F2D9C2F937002C080E090E013
:1020A0000E94D82704C16D2F8F2D0E942635FFC0B6
:1020B0008C2F8370A9F5D111F7C04F2D429546950D
:1020C0004770440F440F8F2D8F7090E09C01042EB9
:1020D00001C0220F0A94EAF7F4FE08C08FE090E0F6
:1020E00001C0880F4A95EAF7809501C080E0C69547
:1020F000C695C370C23069F088F49091BE02C130B9
:1021000019F0822B892302C0922B892B0E94A434C0
:10211000CBC0822B9091BE028927F8CF822BF6CFBD
:10212000DD2319F08C2F817001C08695882309F476
:10213000BBC04F2D429546954770440F440F8F2DDD
:102140008F7090E09C01042E01C0220F0A94EAF7E0
:10215000F4FE08C08FE090E001C0880F4A95EAF7CE
:10216000809501C080E0C695C695C370C23059F015
:1021700078F490915206C13019F0822B892309C05E
:10218000922B892B06C0822B90915206892701C081
:10219000822B0E948A3488C0CF70DD2339F08C2FC7
:1021A0000E949A348F2D0E941C357EC08F2D0E9474
:1021B00015358C2F0E948F3477C08F2D22EFD216C9
:1021C00069F12D1538F030EFD31659F091EFD9168B
:1021D00001F150C0E3EFDE1641F1F4EFDF16A9F094
:1021E00049C0DD2369F0E1105BC0CF7181E090E070
:1021F00001C0880FCA95EAF79091520689271DC041
:1022000021E02E1508F44CC0F0CF80911E0682FD0F
:1022100019C0DD2329F08C2F8F711FC0DD23D9F366
:102220008C2F8F710E948F343BC0DD2349F0CF711A
:1022300081E001C0880FCA95EAF70E948A3430C055
:1022400080E0FBCFDD2361F08C2F8F7198E0899FB8
:10225000900111242360209369040E949A3420C0C5
:1022600081E00E94AC20E1E0EE15D0F482E00E9413
:10227000AC2016C0DD2321F0EE2069F28F2D97CE21
:10228000EE2071F2893349F4FFEF27EE33E0F1508D
:1022900020403040E1F700C000008F2D0E94FD3546
:1022A00088EF8B0D843018F40E94262816C0CC20AD
:1022B000A1F08091690480FD10C0F8011582869517
:1022C000869586950E949A34C80162DA80916904E5
:1022D0008695869586950E948F3460E0C8010E949D
:1022E000492C1CC085E301CDE157FF4F0C94333BD3
:1022F00080911F04837011F010921D0180911F04C2
:102300008C7F80931F04F9CB8091BF02811104C0A0
:1023100089E20E947327EBCC85E3FBCFCDB7DEB714
:10232000E9E00C947F38A5E0B0E0E9E9F1E10C9434
:102330005A38782E80911F0187110DC020911F04FB
:10234000237030E040911E0150E081E024173507F2
:1023500019F480E001C081E0817080931C018091BC
:10236000240490911B01981739F080931B0140E0E1
:1023700060E080E00E94343186E1781246C082E05D
:1023800090E30E94041A09C0271508F46BC235E0D7
:10239000731262C28BE493E3F4D7898321C0A7153B
:1023A00008F454C2B1E07B1288C080911A010E94E7
:1023B000C22A9A83898360912004709121048091BC
:1023C00022040E946033162F072FF82E4A8159816C
:1023D000541708F4D3C081E08983403308F0CCC09F
:1023E00080911A018F5F80931A015981511194C60F
:1023F00082E080931D0180911C0181118DC67110B6
:102400008BC683E080931D0187C6871508F477C2C9
:102410009AE079120EC083E992E308C0A71508F488
:1024200042C2BBE07B1239C28AE792E30E94531A90
:10243000B4CF971508F423C2A4E07A12B0CF8091EC
:102440001A010E94C22A9A838983E0902104D090C5
:1024500022046091230480E40E940132F82EEA8174
:10246000F981FE1708F052C0A9810A2F10E0F80187
:10247000E650FE4F908180911B018923D1F0F80135
:10248000EE0FFF1FE656FE4F6081F69EB00111244D
:10249000E5E075956795EA95E1F780912004680F6E
:1024A0007E2D8D2D0E946033472F282FC8010E945A
:1024B0003731B981BF5FB983D2CF7B1608F453C0DF
:1024C000E2E07E128AC080911A010E94C22A9A8399
:1024D00089830091210410912204F09020046F2D33
:1024E000702F812F0E946033E62ED72EC82E609168
:1024F00023046F0D702F812F0E946033162F072F3A
:10250000F82EEA81F981FE1708F44DC021E02983F5
:1025100026C0E71508F4F8C2F7E17F1609F46EC289
:1025200028E172128DC180911A01882309F4AAC290
:1025300080911A010E94C22A9A83898390911C017A
:102540009111C1C24091120150911301282F30E026
:102550004217530708F0C5C2B1E0B983EA81E033FE
:1025600008F43ECF09C080911C01882329F040E087
:1025700060E080E00E943431198232CF2981E22F5D
:10258000F0E0DF01A650BE4F8C9190911B01982383
:1025900031F02F2D402F612FCF010E94373139812B
:1025A0003F5F398313CFA9818A2F90E0FC01E65069
:1025B000FE4F308120911B01232359F030FF04C0CE
:1025C0002F2D402F612F03C02C2D4D2D6E2D0E94DD
:1025D0003731B981BF5FB98394CFF3E07F1230C147
:1025E00080911A010E94C22A9A838983E090210473
:1025F000D09022046091230480E40E940132F82EDE
:102600005A818981851728F53981032F10E0F80157
:10261000E650FE4F908180911B018923B1F0F801B3
:10262000EE0FFF1FE556FE4F808182958F706091FF
:1026300020048F9D600D11247E2D8D2D0E9460330E
:10264000472F282FC8010E94373149814F5F4983A6
:10265000D7CF91E09983ECC0A71508F4BFC4BCE1C3
:102660007B1609F453C1B71508F0C2C15FE17516B6
:1026700009F456C2571508F4E2C38DE1781609F43F
:10268000F8C29EE17912DCC080911C01882329F0F8
:1026900040E060E080E00E94343180911A010E94A5
:1026A000C22A9B834091F2035091F3036091F4039B
:1026B0007091F5038091810390918203A09183032F
:1026C000B091840384179507A607B70708F0ADC03B
:1026D0006091200470912104809122040E94603353
:1026E000362E7A83282E07E513E0E6E4F1E0FD8339
:1026F000EC83AAE98A2EA1E09A2EAC80BD80650108
:10270000780132E03983D7018C91811190C3412C3B
:10271000512C612CD501ED915D01F0E0DF01A65057
:10272000BE4F8C9190911B01982331F0242D452DA3
:10273000662DCF010E943731D6011596EC91F0E05D
:10274000DF01A650BE4F8C9190911B01982331F070
:10275000242D452D662DCF010E943731F70181814F
:10276000D7018D937D01B981B150B983E1E0CE1AD3
:10277000D108B111C8CFD80112968C9181115BC3D9
:10278000D12CE12CF12CAC81BD811296EC91F0E0C2
:10279000DF01A650BE4F8C9190911B01982331F020
:1027A0002D2D4E2D6F2DCF010E943731AC81BD8173
:1027B0001396EC91F0E0DF01A650BE4F8C91909102
:1027C0001B01982331F02D2D4E2D6F2DCF010E942E
:1027D00037310E947531837091E009F090E0F80183
:1027E00092830D5F1F4F2C813D812A5F3F4F3D83B8
:1027F0002C838216930609F080CF0E94F03100915D
:10280000F2031091F3032091F4033091F503DC01FE
:10281000CB01800F911FA21FB31F80938103909360
:102820008203A0938303B093840341E049835B81D7
:10283000503308F4D5CDA0CEEFEF7E1609F43BC49B
:1028400080911A018F5F80931A01D2CD27E0721216
:102850009BCD84EE92E3A0CD46E07412F1CF87E1E8
:1028600093E39ACD58E0751203C088EC92E305C05B
:1028700089E07812E5CF8DEA92E37BD68ECD90E1A8
:10288000791203C080EA90E3D1CD9715C0F0ADE096
:102890007A12C4CD83ED90E37FCDECE07E12D0CFF1
:1028A0008CED90E379CDFEE07F1203C08AEC90E3DB
:1028B00073CD2FE07212C4CF8FEA90E36DCD33E178
:1028C000731203C081E191E3B1CD371560F041E1AE
:1028D000741203C08BEB91E3D0CF52E17512B0CFED
:1028E00084E291E3CACF84E1781203C082E790E3E7
:1028F00048CD95E17912A4CF80E490E342CDA2E2E5
:102900007A12AACE89E092E3D3D447CD80911A01FE
:10291000811128C02091C1023091C2023D832C83D5
:102920000E9435274091230420E431E0241B310923
:102930004C815D81841B950B2817390798F40E9400
:10294000753150E3859FC0011124892F880F880BB2
:1029500090931401809315010E9435279093C20231
:102960008093C10280911A010E94C22A192FA0915E
:102970001401B0911501BD83AC8390E0A817B9078D
:1029800088F1812F90E0A817B90760F5FD01E650A6
:10299000FE4F908180911B01892321F10E947531A6
:1029A00081FD0EC00E947531082F0E947531B0E87C
:1029B0008B9FC00111247FE7790F8091220403C00F
:1029C00080E070E000E0602F0E946033472F282FE6
:1029D0008C819D810E94373181E390E090931501B5
:1029E00080931401E1E0E983103308F4F9CCC4CDFD
:1029F000E9E17E128ECD83E692E3CECC80911A017E
:102A00000E94C22A192F90911C01911121C060913E
:102A1000230420E1620F08F46FEF8091F20390919C
:102A2000F3030E94E3316AE070E00E944638892B8C
:102A300031F50E94753140E3849F9001112460912B
:102A40001B01832F932F990F990B0E940A2A17C0FD
:102A5000A82FB0E0BD83AC83E12EF12C2C813D8109
:102A60002E153F0564F460911B018C819D810E94AD
:102A70000A2AEC81FD813196FD83EC83EFCF31E0B2
:102A80003983B2CF6091230420E1620F08F46FEF25
:102A90008091F2039091F3030E94E33165E070E0CE
:102AA0000E944638892B09F043CD0E94753140E3DE
:102AB000849FC0011124892F880F880B90931201E5
:102AC0008093130135CD8A819981981708F044CD00
:102AD00060911B0189810E94E92959815F5F5983B7
:102AE000F2CFAA818A2F90E04817590708F034CD19
:102AF00060911B01842F0E94E92981E390E090936B
:102B000013018093120128CD3AE1731203C082E4CD
:102B100092E342CC4BE1741293CE88E292E33CCC38
:102B200080911A010E94C22A1C0180911C018823F5
:102B300061F040E060E080E00E94343184E5EAE842
:102B4000F3E0DF011D928A95E9F780911A01811166
:102B50001BC0E0918603F0918703FD83EC830E9404
:102B600035272C813D81821B930B21E08931910512
:102B700008F420E020938503499730F00E94352720
:102B8000909387038093860376E4C72E71E0D72E57
:102B9000EAE8EE2EE3E0FE2EF8ED8F2EF3E09F2E16
:102BA000512C00E010E0F601E00FF11F3081398375
:102BB000321508F444C0331508F041C05394432F34
:102BC00050E05D834C83FA01E650FE4F9081809186
:102BD0001B01892309F433C05701A00EB11ED50192
:102BE0006C90262D35E5231B08F420E0422E409101
:102BF000210449832AEA562D250F08F42FEF822F4E
:102C000092E0299F800D1124609122048E5F0E9422
:102C100001326AEA641979810E946033472F282FB4
:102C20008C819D810E94373180918503882339F002
:102C3000262D31E0231B08F420E0D5012C930F5FF3
:102C40001F4F0630110509F0AECF8E149F0451F0CE
:102C5000B6E0CB0ED11CE6E0EE0EF11CF4E0F5156B
:102C600008F09FCF21E029833FE2331508F0B8CB6D
:102C700083CC40915303509154036091550370915C
:102C800056038091F2039091F303A091F403B09165
:102C9000F50384179507A607B70708F46DCC809154
:102CA0001C01811107C080911A010E94C22A092FBC
:102CB000898350C040E060E080E00E94343123EC22
:102CC00032E03D832C8310E30E94753181FF09C0FF
:102CD000AC81BD811C9211961C92119712961C9288
:102CE00015C00E947531082F0E947531B0E88B9F86
:102CF000C00111247FE7790F602F809122040E9488
:102D00006033EC81FD8160837183828311502C815B
:102D10003D812D5F3F4F3D832C831111D5CFC3CF14
:102D20003981832F90E0FC01E650FE4F30812091E5
:102D30001B01232361F0FC01EE0FFF1FE80FF91FB9
:102D4000ED53FD4F2281418160810E9437314981DD
:102D50004F5F49835981501718F381E0898300330D
:102D600008F01982003308F43BCB20E010E001505A
:102D70001109822F90E080179107C4F4DC01AA0F9B
:102D8000BB1FA80FB91FAD53BD4F0196FC01EE0F3D
:102D9000FF1F8E0F9F1FFC01ED53FD4FC080D180A0
:102DA000E280CD92DD92EC922F5FE3CF0E947531ED
:102DB0007801EE0CFF1C81FF09C00E0D1F1DF801EC
:102DC000ED53FD4F10821182128218C00E9475319E
:102DD0008A830E947531A0E88A9FC00111247FE791
:102DE000790F6A81809122040E9460330E0D1F1DAD
:102DF000F801ED53FD4F6083718382830E94F031AF
:102E00000091F2031091F3032091F4033091F50344
:102E1000DC01CB01800F911FA21FB31F80935303CE
:102E200090935403A0935503B0935603D9CA422CF0
:102E30005A80632C6FCCD22CEA80F32CA4CCA0E275
:102E40007A12C6C06090220483E0689EA00111241B
:102E500056954795569547955D834C839C819983FC
:102E6000862C912C8FEF90E0B4010E94203B362EEF
:102E700080911C01882371F040E060E080E00E94B6
:102E8000343184E5EAE8F3E0DF011D928A95E9F741
:102E900010928903809188038F5F809388033AE8BA
:102EA000E32E33E0F32E46E4A42E41E0B42E50E9A5
:102EB000452E53E0552EEC81FD818E1A9F0A870125
:102EC0006501212C21100CC080918903811108C05B
:102ED0000E94D838853595401CF4D7016C920CC0FF
:102EE000F8018081882341F0861530F490918803A1
:102EF000391202C081508083D601EC91EF3F29F155
:102F0000D8012C91F0E0B981B21790F430E04C81F7
:102F10005D81241B350B249FC001259F900D349F9C
:102F2000900D1124B4010E944638262F462D0AC068
:102F3000629EC00111246C817D810E944638462F1B
:102F400020E060E0CF010E943731239456E0C50EA7
:102F5000D11C0A5F1F4F8EE02812B4CF9FEFE91AF1
:102F6000F90AAFEFAA1ABA0A4E145F0409F0A7CF04
:102F700080918803381202C01092880380918903DF
:102F80008F5F8D3118F480938903F6CA10928903FC
:102F900022ED33E08DE04EED53E09FEF960DA8ED6E
:102FA000B3E0F9018D3021F46C91661201C09C935D
:102FB0006081661510F090836682319611964A17EB
:102FC0005B0781F78150265031098111E8CFD4CABF
:102FD000B1E27B1235CC8BE192E396CCE8E27E1233
:102FE0000BC06FE77FE205C034E2731229CC69EEB3
:102FF0007FE280E0C2D0D1C9E71508F432C0F5E223
:103000007F120BC08091F60321E0482F421B08F489
:1030100040E0842F61EB7FE2EDCFF71570F023E203
:103020007212E2CF8091F60321E0382F321B08F4B0
:1030300030E0832F69EE7FE2DDCF46E2741203C0F9
:1030400061EB7FE2D6CF57E27512FACB8091F6039F
:1030500021E0582F521B08F450E0852F6FE77FE2E4
:10306000C9CF8BE278120BC08091F60321E0482F84
:10307000421B08F440E0842F61E57FE2BBCF871557
:10308000A0F099E279120BC08091F60321E0382F6D
:10309000321B08F430E0832F67E67FE2ABCFAAE271
:1030A0007A12CECB67E67FE2A4CFBCE27B12C4CB20
:1030B00061E57FE29ECF8091F2039091F303A091AE
:1030C000F403B091F50388279C70AA27BB272AE058
:1030D000B695A795979587952A95D1F78230910552
:1030E000A105B10571F083309105A105B10569F025
:1030F00040E00197A105B10511F060E008C064E16E
:1031000002C044E160E080E003C044E164E184E1A6
:103110000E94343182E076C92596E2E10C9476383B
:1031200040E250E0BC0183E00C94582680912704D3
:10313000816080932704089590911F04937081F01B
:10314000811102C0946007C08D3210F0906B03C0F3
:10315000880F880F982B90931F0410921D01E6CFC3
:10316000089590911F04937039F080932004609328
:10317000210440932204DACF0895A7E0B0E0E3EC05
:10318000F8E10C945A38282E4B0180911A010E94C4
:10319000C22A392E182F2091F6032983131508F01F
:1031A0007EC0A12EB12CF501E650FE4F908180919A
:1031B0001B01892309F471C0509020046090210400
:1031C000722C412CC501880F991FDC01A656BE4FF9
:1031D000BB83AA83C501880F991FFC01E556FE4FEA
:1031E000FD83EC83F9817F1608F049C0E72CF12CB0
:1031F000AA81BB81BC91EB2FF0E0FF83EE83F70146
:10320000EA50FC4F81812E813F81281B31093F8389
:103210002E83AC81BD81CC90D12C8185C81AD10878
:10322000F901EE9F9001EF9F300D300D1124CC9CE1
:10323000C001CD9C900D900D1124820F931F0E9410
:103240008A31082F6091230421E0620F08F46FEFA8
:10325000F701EE0FFF1FEA50FC4F818D928D0E9407
:10326000E3317C0196014E815F81652D762D842DA1
:10327000F4010995562E672E482E7394B3CF6091B2
:103280002204842D0E940132652D762D0E94603328
:10329000472F282FC5010E9437311F5F7FCF81E064
:1032A0002FE2231508F480E02796E2E10C947638AB
:1032B000A0E0B0E0EEE5F9E10C946438EC01809117
:1032C0001A010E94C22A092F182F2091230431E0ED
:1032D000230F08F42FEF30E040E050E06FEF7FEF76
:1032E00080E090E00E943E397901101708F040C05C
:1032F000C12ED12CF601E650FE4F908180911B012A
:103300008923A1F19091F603915097FD15C0492FA3
:10331000092E000C550BFA01EA50FC4F8189181355
:10332000F3CF440F551FFA01EA50FC4F218D328D27
:103330002E153F0548F701C097016091230441E035
:10334000640F08F46FEFC9010E94E331AC01609192
:1033500020047091210480912204FE0109950E94AD
:103360006033472F282FC6010E9437311F5FBDCF22
:1033700081E0003308F080E0CDB7DEB7E8E00C94E0
:103380008038A0E0B0E0E7ECF9E10C9465388C01FE
:1033900080911A010E94C22AEC0160912304669573
:1033A000669521E0620F08F46FEF8091F20390912F
:1033B000F3030E94E331D82ECD17E8F4EC2EF12C64
:1033C000F701E650FE4F908180911B01892389F01F
:1033D0006091200470912104809122042D2D4C2FA6
:1033E000F80109950E946033472F282FC7010E94DA
:1033F0003731CF5FE1CF81E0D03308F080E0CDB747
:10340000DEB7E7E00C948138A0E0B0E0EAE0FAE152
:103410000C9461386C0180911A010E94C22A192F04
:10342000C82F60912304669566958091F203909170
:10343000F3030E94E331D82F80E48D0F0E945431B2
:1034400090E8F92EF80E8D2F0E94543120E8922E2C
:10345000980EC117F8F4AC2EB12CF501E650FE4FD2
:10346000908180911B01892399F0609120047091D3
:10347000210480912204ED2E0C2F292D4F2DF601D1
:1034800009950E946033472F282FC5010E943731CC
:10349000CF5FDFCF81E0103308F080E0CDB7DEB73B
:1034A000EBE00C947D38A0E0B0E0E9E5FAE10C94A3
:1034B0005F385C0180911A010E94C22AF92E182FF0
:1034C0006091230466958091F2039091F3030E942A
:1034D000E331782E1F1508F042C0812E912CF401A3
:1034E000E650FE4F908180911B018923B1F1F401D8
:1034F000EE0FFF1FE656FE4FC081D0E0C057D10946
:10350000F401EE0FFF1FE556FE4FC080D12C80E284
:10351000C81AD108CC9F9001CD9F300D300D1124D9
:10352000CC9CC001CD9C900D900D1124820F931F57
:103530000E948A31082F60912004709121048091AB
:103540002204E72C9601AE01F50109950E94603333
:10355000472F282FC4010E9437311F5FBBCF81E066
:10356000FFE2FF1508F480E0CDB7DEB7EDE00C9484
:103570007B38A0E0B0E0EFEBFAE10C9464387C011A
:1035800080911A010E94C22AD92E182F609123041B
:1035900066958091F2039091F3030E94E331C82E67
:1035A0001D1570F5C12FD0E0FE01E650FE4F908151
:1035B00080911B01892311F1FE01EE0FFF1FE556DB
:1035C000FE4F208130E020523109FE01EE0FFF1F37
:1035D000E656FE4F408150E040575109609120046B
:1035E00070912104809122040C2DF70109950E940D
:1035F0006033472F282FCE010E9437311F5FD0CF75
:1036000081E0FFE2FD1508F480E0CDB7DEB7E8E029
:103610000C948038AAE2B0E0E0E1FBE10C94693858
:10362000EAEEF3E08091F100819343E0E23FF4079A
:10363000C9F78091EB03833009F463C030F4813023
:1036400071F0823009F4A2C0B9C08A3009F48EC08A
:103650008B3009F46EC0893009F0B0C020C0809171
:10366000EA03813A09F0AAC08091E800877F80933D
:10367000E8008091EE039091EF03892B21F468E03C
:103680008EED93E003C060E080E090E070E00E9487
:10369000FA258091E8008B778093E8008FC08091B5
:1036A000EA03813209F08AC08091EE039091EF0322
:1036B000009719F0039709F081C08091E800877F97
:1036C0008093E8008091E80082FD05C08091E803C6
:1036D0008111F8CF73C02091F3008091F20090E047
:1036E000922B029731F48091F100813011F08630F5
:1036F00021F48091F100809317018091E8008B778D
:1037000059C08091EA03813A09F058C08091EE03D4
:103710009091EF03892B09F051C08091E800877FD9
:103720008093E8008091E80080FFFCCF8091180131
:103730003CC08091EA03813209F040C08091EE03E1
:103740009091EF03892BD1F58091E800877F8093DA
:10375000E8000E94692481E09091EC03911101C07E
:1037600080E0809318010E94D03428C08091EA0341
:10377000813221F58091E800877F8093E8000E94E4
:1037800069248091ED038093160118C08091EA03AB
:10379000813AA1F48091E800877F8093E8008091CE
:1037A000E80080FFFCCF809116018093F1008091AA
:1037B000E8008E778093E8000E9469248091E800F9
:1037C00083FFF1C18091EA039091EB03492F50E010
:1037D0004A30510508F0E7C1FA01E456FF4F0C9456
:1037E000333B803821F0823809F0DDC108C0809178
:1037F000E6039091E703992389F082600FC08091DE
:10380000EE038F70873008F0CEC18093E90080917D
:10381000EB0085FB882780F91092E9009091E80081
:10382000977F9093E8008093F1001092F1007CC1A3
:10383000282F2D7F09F0B7C1882319F0823061F05D
:10384000B2C18091EC03813009F0ADC1933009F031
:1038500080E08093E7032EC08091EC0381112AC0A1
:103860008091EE038F702FEF280F263008F09BC158
:103870008093E9002091EB0020FF1CC0933021F4DD
:103880008091EB00806214C09091EB009061909366
:10389000EB0021E030E0A90102C0440F551F8A95DA
:1038A000E2F74093EA001092EA008091EB00886012
:1038B0008093EB001092E9008091E800877F80936D
:1038C000E8000E9469246FC181116DC11091EC0361
:1038D0001F778091E3008078812B8093E3008091B3
:1038E000E800877F8093E800F4D78091E80080FFAC
:1038F000FCCF8091E30080688093E300111102C047
:1039000082E001C083E08093E8034DC1805882309B
:1039100008F049C12091EC033091ED032C3D53E0B8
:10392000350779F583E08A838AE289834FB7F89473
:10393000DE01139620E03EE051E2E32FF0E05093E9
:103940005700E49120FF03C0E295EF703F5FEF70F6
:103950008E2F90E0EA3010F0C79601C0C0968D938C
:103960009D932F5F243149F74FBF8091E800877FF7
:103970008093E8006AE270E0CE0101960E94FA2589
:10398000C1C08091EE039091EF03432F5527433040
:103990005105B1F068F44130510509F413C14230CA
:1039A000510509F000C184E790E0E6E7F2E057C076
:1039B0004132510589F14232510509F43CC0F3C04E
:1039C000C901992781309105B9F070F082309105D5
:1039D000D9F0039709F0E7C0ECEFF2E0E4918E2F05
:1039E00090E0ECEFF2E038C0EAE5F3E0E4918E2FEE
:1039F00090E0EAE5F3E030C0E0E3F3E0E4918E2FFD
:103A000090E0E0E3F3E028C0E8E1F3E0E4918E2FFA
:103A100090E0E8E1F3E020C08430910508F0C3C0F5
:103A2000880F991FFC01E25CFE4F0190F081E02DB0
:103A300089E090E014C08430910508F0B4C0FC0126
:103A4000EE0FFF1FEA5CFE4F0190F081E02DDC01DC
:103A5000AE5CBE4F8C9190E0009709F4A4C0209119
:103A6000E800277F2093E8002091F0033091F103D4
:103A70008217930708F49C0140E02115310589F174
:103A80008091E803882309F43DC08530D9F1809105
:103A9000E80083FD37C08091E80082FD2FC080914F
:103AA000E80080FFEACF4091F3008091F20090E0BF
:103AB000942B2115310559F08830910540F444913B
:103AC0004093F1003196215031090196F2CF41E047
:103AD000089709F040E08091E8008E778093E80035
:103AE000CCCF4111CDCF0AC08091E803882351F09B
:103AF000853041F08091E80083FD04C08091E800AA
:103B000082FFF2CF8091E8008B778093E8004BC072
:103B1000803809F048C08091E800877F8093E800F2
:103B20008091E9038093F1008091E8008E77C7CE01
:103B3000811139C08091EC039091ED039927029790
:103B400094F58091E800877F8093E8001091EC0362
:103B50001093E903BED6111106C08091E30087FDE2
:103B600002C081E001C084E08093E80342E061ECA0
:103B700081E0CED642E161EC82E0CAD642E261EC5D
:103B800085E0C6D642E261EC83E0C2D642E260EC58
:103B900084E0BED68091E803843011F081E001C05A
:103BA00082E0809319018091E80083FF10C080912A
:103BB000E800877F8093E8008091EB00806280932B
:103BC000EB0005C082E190E0EAEEF2E048CFAA9671
:103BD000E3E00C94853880E0089590911D0692FFF3
:103BE00010C041E0282F2471243009F040E031E07A
:103BF000282F2871283009F030E0431711F02CE00D
:103C0000822793FF10C041E0282F2471243109F04E
:103C100040E031E0282F2871283109F030E04317C7
:103C200011F02CE0822730911E0630FF10C051E0C9
:103C3000282F2171213009F050E041E0282F287110
:103C4000283009F040E0541711F029E0822731FFB5
:103C500010C041E0282F2171213109F040E031E00E
:103C6000282F2871283109F030E0431711F029E09E
:103C7000822794FD877E08958238910569F1B0F41A
:103C80008133910509F475C048F48932910509F42E
:103C900067C08A32910509F471C008958533910592
:103CA00009F459C089339105B9F00895833E91050F
:103CB00089F138F4803E9105D1F0823E910529F1D9
:103CC0000895863E9105C9F1873E9105D9F1843E5C
:103CD000910509F06CC027C020911D0620FD57C03A
:103CE00021FD55C020911E0623FD5BC008958091E3
:103CF0001D0680FD48C080911E0680FF48C080914F
:103D00001D0684FD46C083EE51C080911D0682FFD2
:103D10003CC0F5CF80911D0682FD37C080911E0604
:103D200080FD35C0ECCF80911E0681FF36C08091AA
:103D30001D0684FD2EC087EE39C080911D0683FFCD
:103D40002AC0F5CF80911D0683FD25C080911E06F7
:103D500081FD23C0ECCF80911D0685FD22C01FC0D0
:103D600080911D0685FD1BC080911E0683FF19C032
:103D70000AC080911D0686FD16C017C080911D06E1
:103D800086FD13C010C089E311C082EE0FC080EE23
:103D90000DC080E00BC086EE09C084EE07C085E34D
:103DA00005C089E203C08AE201C081E390E0089582
:103DB0009091940480916B04892B90916A049923CB
:103DC000E1F0892B90911801913041F490911D06FA
:103DD00097FF04C09EE125EA34E003C096E02DE998
:103DE00034E0F90120E0915028F031913323D9F3E8
:103DF0002F5FF9CF211110926A0408952091680471
:103E000090912F0457E02917A9F030E0529FF0015C
:103E1000539FF00D1124E05DFB4F7181761306C0B6
:103E20007081781303C07581741306C02F5F3F4FF4
:103E30002770E9CF80E0089581E008957E30B0F4E6
:103E40006630A0F48530A0F494E5899FF001112438
:103E500086E0789FE00DF11D1124E60FF11DEE0FB5
:103E6000FF1FE25AFC4F85919491089580E001C0B4
:103E700081E090E008951F93CF93DF93FDDEEC0186
:103E8000C11580E5D807E8F5C11590E4D90708F019
:103E9000A6C0C03ED10530F5CD3CD10508F094C098
:103EA000C83AD10578F4C53AD10508F083C0C130CD
:103EB000D10509F47CC008F4EBC0C430D10508F08A
:103EC000EAC0E6C0C33CD10508F0E2C0C85AD0E061
:103ED000CC0FDD1FC35DDD4F0990D881C02DCE0111
:103EE0009464DAC0C11580E2D80708F0C6C0C115D5
:103EF00091E0D90708F06BC0C83ED10508F4CBC0EB
:103F0000C7C0C03682E5D80728F5C03492E5D90786
:103F100008F076C0C03282E5D80708F069C0C11544
:103F200092E5D90708F47EC04C2F4695469580E26D
:103F3000489FA0011124C37021E030E0C90102C0F4
:103F4000880F991FCA95E2F7EA01C82BD92BCE0139
:103F50009D68A2C0C03A82E5D807B8F48C2F8F7153
:103F6000C03892E5D90708F077C08695869590E22B
:103F7000899F90011124C37081E090E002C0880FF6
:103F8000991FCA95E2F79A6864C0C03C82E5D807D9
:103F900008F469C0C03E92E5D90708F079C0CF7136
:103FA000DD27DC2FCC27CE01806F906A75C081E0C1
:103FB00090E072C0C55AD0E0C65DDD4F8881C82F41
:103FC000D0E0CE01906468C0CE01906565C08D2FB1
:103FD00004DE182FCE0199274FDE1F7157C0CE0186
:103FE00099274ADECC27DF70D06A8C2B9D2B54C0DA
:103FF000CF71D0E0DC2FCC27CE01816F906A4CC00E
:104000008C2F8F718695869590E2899F900111245F
:10401000C37081E090E002C0880F991FCA95E2F753
:104020009C6817C08C2F8F71D8DD95E0D695C79509
:104030009A95E1F7CF70D0E0DC2FCC27282F30E025
:1040400084FF05C084E0220F331F8A95E1F7D06911
:10405000CE01822B932B20C090E0D82FCC27CE010D
:10406000846F906A19C08C2F8F71B7DD8F7190E0CB
:10407000D82FCC27CE0190620FC08D2F8F71ADDD70
:10408000182FCE019927F8DD1F719062912B04C083
:1040900080E090E001C0CE01DF91CF911F910895A3
:1040A000809590919404892380939404089580913D
:1040B0001801813061F580911D0687FF28C078DEE8
:1040C0008093A40440E250E06CE674E083EA94E05C
:1040D0000E94393B892B09F43EC080E2E3EAF4E018
:1040E000ACE6B4E001900D928A95E1F7E0911906F3
:1040F000F0911A06309779F10480F581E02D309720
:1041000051F186E08093A30483EA94E023C050DE5B
:1041100080939B0448E050E06CE874E08BE994E005
:104120000E94393B892BB9F088E0EBE9F4E0ACE878
:10413000B4E001900D928A95E1F7E0911906F091B3
:104140001A06309741F00280F381E02D309719F084
:104150008BE994E0099508959091690480958923ED
:1041600080936904282F277069F4981759F090916B
:104170001E0692FF07C08695869586950E948F340D
:1041800010926904089590911E0692FB222720F94F
:10419000281771F080FB92F990931E0660911D061E
:1041A00070911E0684E090E00E943A3982E0D4CFFC
:1041B00008958091680490912F04891719F08F5FFA
:1041C0008770FBCF0895CF93DF9380912E04829563
:1041D0008F7009F04DC080912D04882309F448C0E8
:1041E0008091680440912F04509129046091280423
:1041F000C0912A04D0912B0477E08417C9F190E094
:10420000789FF001799FF00D1124DF01A05DBB4F75
:1042100014962C911497222341F111962C91119709
:10422000251323C02C91261320C015962C91159789
:1042300021111BC012962D913C9113972C1B3D0B05
:10424000243B310590F480912E048F70806180931F
:104250002E04EA5CFB4F80818F708061808388E24E
:1042600094E00E94C80BA5DF03C001968770C5CFFC
:10427000DF91CF910895A4E1B0E0E1E4F1E20C9484
:1042800060388C0186E0F801DE011F9601900D92E6
:104290008A95E1F7D80114968C9114971596EC90B5
:1042A00098E2892E94E0992E90912C0491111FC0D0
:1042B000882309F46BC1EE2009F441C0C8010E94B3
:1042C000AE34F82E8823D9F187E0F801D4010190AB
:1042D0000D928A95E1F780912C04813031F4809120
:1042E0002804909129040E9415346DDF51C1F80112
:1042F000D080C180A280B380F0902D0420912A0448
:1043000030912B04FF2009F4EDC0A501421B530B93
:10431000443B510508F0A4C0882309F439C18091B9
:104320002E04282F207F90912904222361F09C15D0
:1043300009F468C0C8010E94AE3481116BC0C80185
:104340000E94C80B23C19C1114C0909128049D1198
:1043500010C0E1100EC08F70806180932E0488E23F
:1043600094E00E94C80B80912E04D80116968C937D
:1043700014C0E11041C040E06C2D8D2D3FDDE82ED2
:10438000882369F088E294E00E94C80BE8E2F4E038
:1043900087E0DF011D928A95E9F7F12CF9C0DF86ED
:1043A000C88A8F8598890E941534292F22952F70ED
:1043B000243020F49F70223028F009C02A50223087
:1043C00080F014C0992349F0811107C013C09923CC
:1043D00021F0F8019681907F69F0805E883030F49A
:1043E00009C0803F38F0815F833020F0C8010E940F
:1043F000C80BEF2CFE2CCCC080912E0481608093E2
:104400002E04CBCF909128049D1194CFE11092CF30
:10441000D8019AC0EE2009F492CF20912E04822F69
:1044200082958F7090E002978CF080912804909193
:10443000290499878887BB86AA8680912C048C875B
:104440001D862E87CE0108960E94C80B87E0F801D2
:10445000A8E2B4E001900D928A95E1F7B4DE96C02F
:1044600090912E04292F207F51F488E294E00E943D
:10447000C80B87E0F40111928A95E9F78ECF882363
:1044800009F486C0809129048C110BC08091280406
:104490008D1107C0E11005C09683C8010E94C80BAA
:1044A0006FC0C8010E94AE34882309F448CFEE20C3
:1044B00009F445CF20912E04822F82958F7090E0D1
:1044C000029724F280912804909129049A83898389
:1044D000BC82AB8280912C048D831E822F83CE01FF
:1044E0000196B2CFA21AB30AF4EBAF16B10408F0EA
:1044F00047C0882309F44AC0FE2CEE2009F41FCFE0
:10450000809129048C112EC0809128048D112AC01D
:1045100090912E0490FD1DC0892F82958F70282FB9
:1045200030E021153105A9F0D80116969C93169715
:104530002F30310559F08F5F982F9295907F169606
:104540008C9116978F70892B16968C93C8010E94B8
:10455000C80B87E0F801A8E2B4E001900D928A95BB
:10456000E1F716C0C8010E94AE3481116FCF80916F
:104570002E04816080932E04C8010E94C80B08C0DD
:1045800087E0F40111928A95E9F702C0FF24F394C1
:104590008F2D6496ECE00C947C38EF92FF920F9391
:1045A0001F93CF93DF938091100190911101892B7C
:1045B000D1F0809197048F5F80939704811113C08D
:1045C0000E940D2F90E09093110180931001892B90
:1045D00051F42FEF83EC99E0215080409040E1F7B7
:1045E00000C00000D3D302E912E0C0E0D0E087E0D1
:1045F000E82EED0E8D2F0E94392E8E2D0E94392E21
:104600008D2F0E94992E8F73F8019081891721F0C8
:104610008083FF24F39401C0F12C8E2D0E94992EEB
:104620008F73F8019781891719F0878381E001C0A2
:1046300080E0F82ACF290E94852EDF5F0F5F1F4F91
:10464000D730A9F6CC2351F081E080939A040DD4A1
:104650009093990480939804C0E023C080919A04B9
:104660008823F9F00091980410919904FED3801BDF
:10467000910B8897B0F04EE050E062E972E080EA7A
:1046800092E00E94393B892B51F08EE0E2E9F2E0A2
:10469000A0EAB2E001900D928A95E1F7C1E0109294
:1046A0009A048C2FCDB7DEB7E6E00C948238A6E0F2
:1046B000B0E0EDE5F3E20C946838D7D38C0180913B
:1046C0009504909196040817190779F019821A82B7
:1046D000CCD3682F49815A81792F80E090E00E94E5
:1046E000712C10939604009395042696E4E00C94A4
:1046F0008438809117010895A0E0B0E0E2E8F3E289
:104700000C94623883E5C82E85E0D82E93E6A92E56
:1047100092E0B92EE12CF12CF60180818823C1F0C2
:10472000C0E0D0E0A7014C0F5D1F4D535B4F6C2FD5
:104730006C5DF501808105E010E020E130E0880F3C
:104740000E946E376096C039D10561F7F60110827C
:10475000F4EACF0ED11C84EAE80EF11CEFEFAE1A9A
:10476000BE0AF8E4EF16F1E0FF06B1F6CDB7DEB70A
:10477000EAE00C947E38FF920F931F93CF93DF9360
:10478000182F062FF42EC0E0D0E02F2D402F612FE0
:10479000CE01D5D42196C033D105B9F7CDB7DEB758
:1047A000E5E00C9483381F920F920FB60F921124FC
:1047B0002F933F934F935F936F937F938F939F9329
:1047C000AF93BF93CF93DF93EF93FF93C091E90033
:1047D000CF708091EC00D82FD17080FDD0E810927E
:1047E000E9008091F000877F8093F00078940E9428
:1047F0000A1B1092E9008091F00088608093F0001D
:10480000CD2BCF70C093E900FF91EF91DF91CF9155
:10481000BF91AF919F918F917F916F915F914F91D8
:104820003F912F910F900FBE0F901F901895E8EDBC
:10483000F0E080818E7F80831092E2001092DA0097
:104840001092E100A0EEB0E08C9181608C938081A9
:104850008F77808319BCA7EDB0E08C918E7F8C930D
:1048600080818F7E80831092240608952091E40039
:104870003091E50095E64091EC00842F817040FF77
:1048800023C08091E80080FD1DC08091E80388234B
:1048900099F0853099F08091EB0085FD11C0409131
:1048A000E4005091E5002417350729F3915011F0E9
:1048B0009A01E1CF84E0089582E0089583E00895AD
:1048C00081E0089580E008954091E80042FFDDCF47
:1048D00008958091EA0387FF11C08091E80082FD6E
:1048E00005C08091E8038111F8CF11C08091E800E4
:1048F0008B770BC08091E803882349F08091E80012
:1049000080FFF8CF8091E8008E778093E8000895CB
:10491000982F973068F59093E900981739F07091C7
:10492000EC002091ED005091F00003C0242F762F71
:1049300050E021FD02C09F5FECCF3091EB003E7F45
:104940003093EB003091ED003D7F3093ED003091DE
:10495000EB0031603093EB007093EC002093ED009E
:104960005093F0002091EE0027FDE5CF80E0089500
:104970008F708093E90081E00895A0E0B0E0E3EC5F
:10498000F4E20C946438C8EDD0E088818F7E88838F
:10499000E7EDF0E080818160808384E082BF81E088
:1049A0008093240688818E7F888302EE10E0F801D0
:1049B00010821092DA0081EEC82ED12CF6011082FE
:1049C00088818F77888388818068888388818F7DBC
:1049D000888319BC1092E8031092E9031092E70350
:1049E0001092E60390EEE92EF12CF70180818B7F87
:1049F000808388818160888342E060E080E088DF96
:104A0000F60180818E7F8083F801808181608083C0
:104A1000808188608083F70180818E7F8083888198
:104A200080618883CDB7DEB7E8E00C9480381F92B0
:104A30000F920FB60F9211242F933F934F935F93D2
:104A40006F937F938F939F93AF93BF93EF93FF9356
:104A50008091E10082FF09C08091E20082FF05C0E1
:104A60008091E1008B7F8093E1008091DA0080FFEC
:104A700028C08091D80080FF24C08091DA008E7F0A
:104A80008093DA008091D90080FF16C080E189BD53
:104A900082E189BD09B400FEFDCF81E08093E80387
:104AA0008091240681110DC0C2DE67DF8091E20093
:104AB00084608093E20005C019BC1092E803109254
:104AC00024068091E10080FF1AC08091E20080FFFF
:104AD00016C08091E2008E7F8093E2008091E20018
:104AE00080618093E2008091D80080628093D8003A
:104AF00019BC85E08093E80383E0809319018091DD
:104B0000E10084FF37C08091E20084FF33C080E180
:104B100089BD82E189BD09B400FEFDCF8091D80036
:104B20008F7D8093D8008091E1008F7E8093E1009B
:104B30008091E2008F7E8093E2008091E2008160AC
:104B40008093E2008091E903882311F084E007C09C
:104B50008091E30087FD02C081E001C083E0809383
:104B6000E8038091E803843011F081E001C082E025
:104B7000809319018091E10083FF2BC08091E200B6
:104B800083FF27C08091E100877F8093E10082E06E
:104B90008093E8031092E9038091E1008E7F809377
:104BA000E1008091E2008E7F8093E2008091E2003C
:104BB00080618093E20042E060E080E0A9DE8091C5
:104BC000F00088608093F00081E080931901809369
:104BD0001801FF91EF91BF91AF919F918F917F91BC
:104BE0006F915F914F913F912F910F900FBE0F905A
:104BF0001F9018952091F0033091F1032617370785
:104C000048F06115710539F42091E8002E77209362
:104C1000E80001C0B901FC0120E06115710579F1DE
:104C20008091E8038823F1F18530F1F18091E8006B
:104C300083FD3CC08091E80082FD2EC08091E80099
:104C400080FFEBCF2091F3008091F20090E0922B57
:104C50006115710551F08830910538F42191209348
:104C6000F100615071090196F3CF21E0089709F036
:104C700020E08091E8008E778093E800CECF21116C
:104C8000CFCF0AC08091E803882361F0853061F0BE
:104C90008091E80083FD0AC08091E80082FFF2CF96
:104CA00080E0089582E0089583E0089581E008950A
:104CB0000F931F93CF93DF938B01EA019091E80349
:104CC0009430A1F58F708093E9008FEF9091E80008
:104CD000815095FD06C095ED9A95F1F70000811180
:104CE000F5CF8091E80085FF21C0C0DD811115C09E
:104CF000209789F08091E80085FD06C08091E8004A
:104D00008E778093E800F1CFF80181918F01809335
:104D1000F1002197EDCF90E001C0982F8091E8003D
:104D20008E778093E80081E0911101C080E0DF91EF
:104D3000CF911F910F91089543E050E0BC0185E0B1
:104D4000B7CF45E050E0BC0182E0B2CF40E250E096
:104D5000BC0185E0ADCFCF93DF93EC0148E050E09C
:104D6000BC0181E0A5DF88E0FE01AEEDB3E001907B
:104D70000D928A95E1F7DF91CF910895603229F481
:104D8000BC0140E250E083E093CF08959AE088E1CF
:104D90000FB6F894A895809360000FBE90936000C2
:104DA000FFCFF89481E08093E00080E28093D80008
:104DB000E9ECF0E010828FE19EE40197F1F700C08A
:104DC00000001DBA109268001CBC10BE1FBA1092E1
:104DD0007A0010926E0010926F0010927100109283
:104DE00072001082ECEBF0E0108214B817B81AB819
:104DF0001DB810BA108215B818B81BB81EB811BA71
:104E00000C94003F089578941F920F920FB60F9262
:104E100011248F939F93AF93BF938091200690911D
:104E20002106A0912206B09123060196A11DB11D75
:104E30008093200690932106A0932206B093230628
:104E4000BF91AF919F918F910F900FBE0F901F90C8
:104E500018952FB7F89460912006709121068091E3
:104E60002206909123062FBF08952FB7F8948091C2
:104E7000200690912106A0912206B09123062FBF13
:104E800008951F920F920FB60F9211248F939F9344
:104E9000AF93BF9380911F06811113C080912006AC
:104EA00090912106A0912206B09123064196A11D62
:104EB000B11D8093200690932106A0932206B09303
:104EC0002306BF91AF919F918F910F900FBE0F90CE
:104ED0001F901895CF93DF93EC01C7DF8C1B9D0BC0
:104EE000DF91CF91089590911801913021F4909124
:104EF0001D0697FD03C0EBE9F4E01DC0E82FE69521
:104F0000E695E695EE31E0F4F0E0ED55FB4F877065
:104F100021E030E0A90102C0440F551F8A95E2F755
:104F2000CA0180959281892382830895319654E045
:104F3000E13AF50729F092818913F8CF1282F6CF72
:104F40000895909118019130D1F490911D0697FF2A
:104F500016C0E82FE695E695E695EE3140F5F0E0CF
:104F6000ED55FB4F877021E030E0A90102C0440FEE
:104F7000551F8A95E2F7CA019281892B16C0ADE9C7
:104F8000B4E0EFEF90E02D91821789F0EF3F19F434
:104F9000211101C0E92F9F5F9630A9F7EF3F39F04B
:104FA0000E2E000CFF0BE556FB4F828308950895EB
:104FB000A3E0B0E0EEEDF7E20C946A3820911B0616
:104FC00030911C0628173907B1F090931C06809386
:104FD0001B06E0911906F0911A06309761F00084E3
:104FE000F185E02D309739F024E029839B838A8373
:104FF000CE01019609952396E2E00C948638A3E051
:10500000B0E0E5E0F8E20C946A38209117063091A0
:10501000180628173907B1F09093180680931706E1
:10502000E0911906F0911A06309761F00084F1853D
:10503000E02D309739F023E029839B838A83CE01CA
:10504000019609952396E2E00C948638E0911906C2
:10505000F0911A06309739F00190F081E02D3097E9
:1050600011F00995089580E00895FFDE2091130660
:10507000211104C020911406222321F090931106DF
:105080008093100620911506211104C02091160668
:10509000222321F090930F0680930E06E0911906CB
:1050A000F0911A06309741F00680F781E02D309795
:1050B00019F082E196E00995089580910D0680FD32
:1050C00018C081FD14C082FD16C080910C06882393
:1050D00081F0803580F425E0829FC001112460E5D5
:1050E00070E00E94203B862F672B19F005C082E0FC
:1050F000089581E0089585E0089580910D0680FD72
:105100000AC081FD0AC082FD0AC080910B06811190
:1051100006C088E008958CE0089588E1089580E352
:105120000895282F35EB2303C001112497FF03C0F6
:105130008058910902C080589F4F892F0895A4E09C
:10514000B0E0E5EAF8E20C9467388033910508F0A6
:1051500049C0122F042FF62EBC01660F771F660F71
:10516000771F6A55794F44E050E0CE0101960E94C6
:10517000E638898183702A8130E0682F70E044EA44
:10518000849FC00111248D539B4FFC01E20FF31F3C
:10519000E0815B814C81EF110CC0FC01E50FF11D3A
:1051A000E081E01306C0FC01E40FF11D808181174E
:1051B000C9F0E4EAE69FC001E79F900D11248D53EA
:1051C0009B4FFC01E20FF31FF082FC01E50FF11D84
:1051D0000083FC01E40FF11D1083FC01E057FF4F39
:1051E00021E020832496E5E00C948338A1E0B0E030
:1051F000ECEFF8E20C9468384983E82FF0E0ED59C1
:10520000FD4F808105E010E021E030E0AE014F5F0E
:105210005F4F880F0E946E372196E4E00C9484382B
:10522000A4E0B0E0E6E1F9E20C9462380E94F136C5
:1052300010E04BE06DEF812FD9DF40E06AE0812F75
:10524000D5DF8FE39CE90197F1F700C0000040E053
:1052500060E0812FCBDF40E061E0812FC7DF40E0DD
:1052600066E0812FC3DF40E06DEF812FBFDF00E0FC
:1052700040E0602F812FBADF0F5F0231C9F740E0B5
:10528000602F812FB3DF0F5F0432C9F740E0602F3A
:10529000812FACDF0F5F043BC9F74BE06DEF812F2F
:1052A000A5DF41E06AE0812FA1DF40E06DEF812FB3
:1052B0009DDF1F5F123009F0BCCF06EA16E096E6CC
:1052C000C92E97E0D92E24EAA22EEE24E394F12CE5
:1052D000BB24B39444E050E0B801CE0101960E9493
:1052E000E6384A813B812C8189818370542F569501
:1052F00056955695A89EC00111248D539B4FFC01D5
:10530000E50FF11DEF56FF4F4770B70102C0660F62
:10531000771F4A95E2F7AB015081452B4083432F1D
:10532000469546954695FC01E40FF11DEF56FF4F5B
:105330003770A70101C0440F3A95EAF73081432B3B
:105340004083322F369536953695FC01E30FF11DDB
:10535000EF56FF4F2770A70102C0440F551F2A9533
:10536000E2F79A013081232B2083FC01ED55FF4F9A
:10537000B0820C5F1F4FC016D10609F0ABCF83EC93
:10538000C82E84E0D82EF12C560153EAA50EB11C8C
:10539000F5018081882391F000E010E0F801EF56DC
:1053A000FF4FEC0DFD1D4081602F8F2D1FDF0F5F24
:1053B0001F4F0231110591F7F5011082F394F4EAC1
:1053C000CF0ED11C42E0F412DFCF2496EAE00C9419
:1053D0007E381F93CF93DF93C82FD0E0FE01E650B5
:1053E000FE4F8081682391F080D7182F7ED720E868
:1053F000829FC00111247FE7790F612F80912204E1
:105400000E946033472F282FCE0131D7DF91CF91F3
:105410001F910895A0E0B0E0E0E1FAE20C94653855
:10542000EC01FC01E650FE4F9081692331F1D090F0
:1054300021040091220410912004E12EF12C55D773
:10544000282FC7018C549F4F68E671E00E94203BD3
:105450008E199F0997FD0396959587959595879544
:105460002370612F289F600D11247D2D802F0E94B5
:105470006033472F282FCE01FAD6CDB7DEB7E7E04D
:105480000C948138EFE1F4E0248130E1231B08F42F
:1054900020E024830C949618EFE1F4E0248130E1BD
:1054A000230F08F42FEF24830C949618EFE1F4E017
:1054B000438120E1421B08F440E08181628190E059
:1054C0000C94B118EFE1F4E0438120E1420F08F4BD
:1054D0004FEF8181628190E00C94B118EFE1F4E02C
:1054E000628120E1621B08F460E08181438190E0E9
:1054F0000C94B118EFE1F4E0628120E1620F08F44E
:105500006FEF8181438190E00C94B118EFE1F4E0FA
:10551000818190E04381628108970C94B118EFE19A
:10552000F4E0818190E04381628108960C94B11887
:1055300080911F0486958695815009F48CE20C9425
:105540009C1880911F04869586958F5F8D3208F098
:1055500081E00C949C1880911F04837011F41092C8
:105560001D0180911F048C7F816080931F0408952A
:10557000EFE1F4E0908181E08927808310921D01A2
:105580000C94961894E0899F800D112495E0980F53
:10559000913308F090E308954F925F926F927F925B
:1055A0008F929F92AF92BF92CF92DF92EF92FF9233
:1055B000CF9380904E0690904F06A0905006B090EA
:1055C000510647DC6B017C01C818D908EA08FB08C2
:1055D00040DC4B015C0160934E0670934F06809354
:1055E000500690935106A0912506E5E2F6E08A2F39
:1055F00090E04FEF5FEF60E070E04C195D096E09DD
:105600007F09A91799F0218D328D2901612C712C08
:10561000441555056605770510F4815004C02C0D1E
:105620003D1D328F218F9F5F3296EBCF80932506F1
:1056300080915A06811108C0C0911F048C2F83707D
:1056400019F0C695C69501C0C0E080911D0181305A
:10565000E9F038F0823009F47BC0833009F485C06A
:10566000A7C010921A018092F2039092F303A092C5
:10567000F403B092F50389E2E5E2F6E0A6EFB3E0C9
:1056800001900D928A95E1F781E06CC08C2F0E9409
:105690009311CC2309F48CC080911D01823009F054
:1056A00052C08091580681114EC08091530683FDEF
:1056B00042C08091520690E0A0E0B0E0AC01BD0194
:1056C00034E076956795579547953A95D1F741150A
:1056D00051056105710521F4AC01BD0180E001C0F7
:1056E00084E06A017B0122E0F694E794D794C794A2
:1056F0002A95D1F7C114D104E104F10419F08E5FA9
:10570000B701A6017695679557954795452B462B8A
:10571000472B09F08F5F833039F0843041F08230BD
:1057200051F482E090E005C083E090E002C084E0A4
:1057300090E0AFD108C080912404811104C040E002
:1057400060E080E091D580911A0181501BDF30C06C
:10575000C0931F0180911F04837080931E010E94DB
:105760007C2383E080931D0123C08091270488233C
:1057700051F048E050E067E170E08FE194E00E9472
:10578000113910922704C090F203D090F303E090F7
:10579000F403F090F5035DDBDC01CB018C199D096E
:1057A000AE09BF094A97A105B10510F010921D017D
:1057B000CF91FF90EF90DF90CF90BF90AF909F90F0
:1057C0008F907F906F905F904F9008959C013A95D5
:1057D00021153F4130F5BC0166277270AC014427AA
:1057E00054709C012227387094FF0FC090FF02C0B4
:1057F00080E101C080E0672B09F08062452B09F051
:105800008064232B79F080680895892F8170672B3D
:1058100009F08260452B09F08460232B19F0886021
:10582000089580E0089590E0FC01E758FD4F208145
:1058300021111AC0F894FC01E559FD4F8081E82F31
:10584000E295EF70F0E031A1282F2F7081E090E019
:1058500001C0880F2A95EAF7982F9095932391A37A
:1058600092A1892B82A378940895982F92959F7086
:1058700019F0892F24E001C020E0982F9695969585
:1058800011F02E5F892F982F969509F02F5F822FA8
:105890000895A6E0B0E0EFE4FCE20C94693826E05D
:1058A000FC01DE01119601900D922A95E1F7FC01B1
:1058B000258189819A81222349F0662339F086D790
:1058C000182F682F89819A81F0D702C0BAD7182F74
:1058D00069817A81812F0E941E1F2696E3E00C9435
:1058E0008538A4E3B0E0E7E7FCE20C9468384FA702
:1058F00058AB69AB7AAB8BAB9CAB911110926B043C
:105900008E01085D1F4F87E0D8011D928A95E9F747
:1059100086E0FE01BF96D80101900D928A95E1F7CD
:105920008CA58823D9F061E0C801B3DF80915706C8
:10593000882389F08DA5811102C087E001C086E02F
:10594000898388A58A8389A58B838EEF8C83CE017A
:1059500001960E94901861E0C8019BDF87E0FE017C
:10596000B896DE01919601900D928A95E1F7CE01ED
:1059700081960E943B2181112CC087E0FE01B196E7
:10598000DE01119601900D928A95E1F76DA16623D3
:1059900001F120912F0430E0C90101968770992709
:1059A0004091680450E08417950761F16D8397E09A
:1059B000929FD001939FB00D1124A05DBB4FFE01BB
:1059C000319601900D929A95E1F780932F040E94F1
:1059D000D92017E08091680490912F048917F1F085
:1059E000189FC0011124805D9B4F0E943B2188239A
:1059F000A9F08091680490E00196877099278093C0
:105A00006804E8CFCDD710922F0410926804E8E222
:105A1000F4E087E0DF011D928A95E9F7E496E4E07F
:105A20000C948438BDD72FEF84E39CE02150804054
:105A30009040E1F700C000000895CF93DF93EC01A0
:105A40000E94FD35CE01805E9109089710F02097E5
:105A500021F4CE01BBDEE9D703C0CE01B7DED0D73B
:105A6000DF91CF910895CF93DF93EC01805E910990
:105A7000089710F0209721F4CE01A8DEDDD703C0EF
:105A8000CE01A4DEC8D78C2F0E942C36DF91CF9197
:105A90000895A0E0B0E0EFE4FDE20C945B3820E96B
:105AA000289F7001299FF00C1124C0E0D0E000E095
:105AB00010E067018FEFC81AD80A570182E0A80EDC
:105AC000B11CF701EC0FFD1FEA59F84F6491F60184
:105AD000EC0FFD1FEA59F84F7491F501EC0FFD1F13
